:100000000C9480000C949D000C949D000C949D0019
:100010000C949D000C949D000C949D000C949D00EC
:100020000C949D000C949D000C949D000C949D00DC
:100030000C949D000C949D000C949D000C949D00CC
:100040000C949D000C94F3000C94B6000C949D004D
:100050000C949D000C949D000C949D000C949D00AC
:100060000C949D000C949D000D0A52554E4E494E25
:10007000473A20534C4156450D0A004D41535445D3
:10008000523A2048656C6C6F20576F726C6421285F
:10009000667072696E74665F50290D0A000D0A520F
:1000A000554E4E494E473A204D41535445520D0A44
:1000B000000D0A005B544553545D0D0A005B534C20
:1000C0004156455D20005B4D41535445525D200033
:1000D00053544152543A205553415254202D2053E9
:1000E000504920000D0A000D0A0046726F6D205322
:1000F0006C6176653A20307825303278200D0A0020
:1001000011241FBECFEFD8E0DEBFCDBF11E0A0E0CD
:10011000B1E0EAECF9E002C005900D92A233B1071C
:10012000D9F721E0A2E3B1E001C01D92A634B207E5
:10013000E1F70E9433010C94E3040C9400009091C9
:10014000C00095FFFCCF8093C6000895299A2A9895
:100150008EBD0DB407FEFDCF2A9A8FE99FE001976F
:10016000F1F700C0000080E090E008951F920F9228
:100170000FB60F9211242F933F934F935F936F937A
:100180007F938F939F93AF93BF93EF93FF93809150
:10019000C00084FD17C0299A2A988091C6008EBDA0
:1001A0000DB407FEFDCF8EB51F928F938AEE90E0BF
:1001B0009F938F930E9412022A9A29980F900F9072
:1001C0000F900F90FF91EF91BF91AF919F918F9101
:1001D0007F916F915F914F913F912F910F900FBE43
:1001E0000F901F9018951F920F920FB60F92112427
:1001F0002F933F934F935F936F937F938F939F932F
:10020000AF93BF93EF93FF93299A8091C00085FF2E
:10021000FCCF8091C00085FFFCCF8EB58D3049F4B6
:1002200087EE90E09F938F930E9412020F900F90A1
:1002300003C08EB58093C6004F9903C08EB58F5F03
:100240008EBD2998FF91EF91BF91AF919F918F91B2
:100250007F916F915F914F913F912F910F900FBEC2
:100260000F901F901895F894219A299A2098289A0F
:100270001092C50089E18093C4008091C0008D7FF9
:100280008093C00088E98093C10086E08093C2001B
:10029000E2E3F1E08EE0DF011D928A95E9F782E06A
:1002A000809335018FE990E090933B0180933A0170
:1002B000F0934301E0934201BFEFE3EDF0E3B1506F
:1002C000E040F040E1F700C0000084EE90E09F9332
:1002D0008F930E94120280ED90E09F938F930E9473
:1002E00012020F900F900F900F90189B0FC086EC8A
:1002F00090E09F938F930E9412021CBC249884B1BB
:10030000886284B9229A2A9A80E50CC08DEB90E02D
:100310009F938F930E9412021CBC2398249A2298C8
:100320002A9880EC8CBD8CB5877F8CBD8CB58460A1
:100330008CBD8DB581608DBD8CB582608CBD8CB55A
:100340008E7F8CBD0F900F904F990AC084EB90E088
:100350009F938F930E94120280E28EBD0F900F90A8
:1003600081EB90E09F938F930E94120278942998DA
:100370000F900F90C8E6D0E00DE910E09BE7E92E62
:1003800090E0F92E20E0C22E21E0D22E2FEF83E262
:1003900094EF215080409040E1F700C000004F9959
:1003A000F5CF189B1DC01F930F930E9412028EE081
:1003B000A82E81E0B82E0F900F90D5018D915D0190
:1003C000882319F00E94A600F8CFFF92EF92DF92E7
:1003D000CF920E94F7010F900F900F900F90D6CF01
:1003E000DF93CF930E9412020F900F90CFCFA0E027
:1003F000B0E0EDEFF1E00C94BA040F811885F8013C
:10040000838188608383AE01455F5F4F69857A850C
:10041000C8010E943402F8012381277F2383E4E08E
:100420000C94D604A0E0B0E0E8E1F2E00C94BA0449
:10043000FE0137966191719102E411E0D8018D912E
:100440009C91DC0113962C911397286013962C93A2
:10045000AF010E943402D801ED91FC912381277FE6
:100460002383E4E00C94D604ACE0B0E0EAE3F2E0ED
:100470000C94AC047C016B018A01FC01178216828A
:10048000838181FFBDC1CE0101964C01F7019381AB
:10049000F60193FD859193FF81916F01882309F403
:1004A000ABC1853239F493FD859193FF81916F0142
:1004B000853229F4B70190E00E941C04E7CF512C4B
:1004C000312C20E02032A0F48B3269F030F48032FD
:1004D00059F0833269F420612CC08D3239F08033B9
:1004E00039F4216026C02260246023C0286021C026
:1004F00027FD27C030ED380F3A3078F426FF06C0CC
:10050000FAE05F9E300D1124532E13C08AE0389E0E
:10051000300D1124332E20620CC08E3221F426FDC2
:100520006BC1206406C08C3611F4206802C0883686
:1005300041F4F60193FD859193FF81916F01811143
:10054000C1CF982F9F7D9554933028F40C5F1F4F97
:10055000FFE3F9830DC0833631F0833771F08335C3
:1005600009F05BC022C0F801808189830E5F1F4FB4
:1005700044244394512C540115C03801F2E06F0E0D
:10058000711CF801A080B18026FF03C0652D70E0CA
:1005900002C06FEF7FEFC5012C870E9411042C0170
:1005A00083012C852F77222E17C03801F2E06F0EC1
:1005B000711CF801A080B18026FF03C0652D70E09A
:1005C00002C06FEF7FEFC5012C870E9406042C014B
:1005D0002C852068222E830123FC1BC0832D90E0F4
:1005E00048165906B0F4B70180E290E00E941C045E
:1005F0003A94F4CFF50127FC859127FE81915F01A4
:10060000B70190E00E941C0431103A94F1E04F1AB7
:1006100051084114510471F7E5C0843611F0893650
:1006200039F5F80127FF07C06081718182819381CC
:100630000C5F1F4F08C060817181882777FD80950E
:10064000982F0E5F1F4F2F76B22E97FF09C09095FF
:100650008095709561957F4F8F4F9F4F2068B22E88
:100660002AE030E0A4010E944E04A82EA81844C03D
:10067000853729F42F7EB22E2AE030E025C0F22FF4
:10068000F97FBF2E8F36C1F018F4883579F0B4C0E9
:10069000803719F0883721F0AFC02F2F2061B22E9C
:1006A000B4FE0DC08B2D8460B82E09C024FF0AC093
:1006B0009F2F9660B92E06C028E030E005C020E1EB
:1006C00030E002C020E132E0F801B7FE07C06081EF
:1006D0007181828193810C5F1F4F06C0608171819F
:1006E00080E090E00E5F1F4FA4010E944E04A82EF0
:1006F000A818FB2DFF77BF2EB6FE0BC02B2D2E7F2B
:10070000A51450F4B4FE0AC0B2FC08C02B2D2E7EF6
:1007100005C07A2C2B2D03C07A2C01C0752C24FF28
:100720000DC0FE01EA0DF11D8081803311F4297E98
:1007300009C022FF06C07394739404C0822F867888
:1007400009F0739423FD13C020FF06C05A2C7314C4
:1007500018F4530C5718732C731468F4B70180E223
:1007600090E02C870E941C0473942C85F5CF7314A1
:1007700010F4371801C0312C24FF12C0B70180E3F8
:1007800090E02C870E941C042C8522FF17C021FFBB
:1007900003C088E590E002C088E790E0B7010CC094
:1007A000822F867859F021FD02C080E201C08BE2E1
:1007B00027FD8DE2B70190E00E941C04A51438F4D7
:1007C000B70180E390E00E941C045A94F7CFAA94EA
:1007D000F401EA0DF11D8081B70190E00E941C0434
:1007E000A110F5CF332009F451CEB70180E290E09B
:1007F0000E941C043A94F6CFF7018681978102C0CB
:100800008FEF9FEF2C96E2E10C94C804FC01059059
:10081000615070400110D8F7809590958E0F9F1F02
:100820000895FC016150704001900110D8F7809547
:1008300090958E0F9F1F08950F931F93CF93DF9373
:10084000182F092FEB018B8181FD03C08FEF9FEFE4
:1008500020C082FF10C04E815F812C813D814217F4
:1008600053077CF4E881F9819F012F5F3F4F398363
:100870002883108306C0E885F985812F0995892B87
:1008800029F72E813F812F5F3F4F3F832E83812F9A
:10089000902FDF91CF911F910F910895FA01AA2710
:1008A000283051F1203181F1E8946F936E7F6E5FB3
:1008B0007F4F8F4F9F4FAF4FB1E03ED0B4E03CD061
:1008C000670F781F891F9A1FA11D680F791F8A1F44
:1008D000911DA11D6A0F711D811D911DA11D20D0AB
:1008E00009F468943F912AE0269F11243019305D65
:1008F0003193DEF6CF010895462F4770405D419356
:10090000B3E00FD0C9F7F6CF462F4F70405D4A33A2
:1009100018F0495D31FD4052419302D0A9F7EACF6A
:10092000B4E0A6959795879577956795BA95C9F799
:1009300000976105710508959B01AC010A2E06948C
:100940005795479537952795BA95C9F7620F731F45
:10095000841F951FA01D08952F923F924F925F9282
:100960006F927F928F929F92AF92BF92CF92DF92BF
:10097000EF92FF920F931F93CF93DF93CDB7DEB724
:10098000CA1BDB0B0FB6F894DEBF0FBECDBF0994B8
:100990002A88398848885F846E847D848C849B840F
:1009A000AA84B984C884DF80EE80FD800C811B811D
:1009B000AA81B981CE0FD11D0FB6F894DEBF0FBE4C
:0A09C000CDBFED010895F894FFCFBC
:1009CA000000000200000000A600000000004D41E7
:1009DA00535445523A2048656C6C6F20576F726CBD
:1009EA006421287370695F707574737472290D0AB3
:0209FA000000FB
:00000001FF
