:100000000C9478000C9495000C9495000C94950039
:100010000C9495000C9495000C9495000C9495000C
:100020000C9495000C9495000C9495000C949500FC
:100030000C9495000C9495000C9495000C949500EC
:100040000C9495000C9440010C94D3000C949500F2
:100050000C9495000C9495000C9495000C949500CC
:100060000C9495000C9495000D0A53504920534C64
:10007000415645204D4F44452052554E4E494E471E
:100080000D0A004E454D55492121210D0A000D0A4A
:10009000535049204D4153544552204D4F44452023
:1000A00052554E4E494E470D0A000D0A005B54450D
:1000B00053545D0D0A005B534C4156455D20005B77
:1000C0004D41535445525D20000D0A205553415275
:1000D00054202D20535049200046726F6D20536CE0
:1000E0006176653A20307825303278200D0A00009C
:1000F00011241FBECFEFD8E0DEBFCDBF11E0A0E0DE
:10010000B1E0E8EAF9E002C005900D92A232B10731
:10011000D9F721E0A2E2B1E001C01D92A633B207F7
:10012000E1F70E946E010C94D2040C9400009091AF
:10013000C00095FFFCCF8093C6000895299A2A98A5
:100140008EBD0DB407FEFDCF2A9A8FE99FE001977F
:10015000F1F700C0000080E090E008951092C50023
:1001600089E18093C400E0ECF0E080818D7F8083A2
:1001700088E98093C10086E08093C200E2E2F1E06A
:100180008EE0DF011D928A95E9F782E080932501D8
:1001900087E990E090932B0180932A01F09333013B
:1001A000E093320108951F920F920FB60F9211241F
:1001B0002F933F934F935F936F937F938F939F936F
:1001C000AF93BF93EF93FF938091C00084FD17C05E
:1001D000299A2A988091C6008EBD0DB407FEFDCFE6
:1001E0008EB51F928F9389ED90E09F938F930E941D
:1001F00001022A9A29980F900F900F900F90FF916B
:10020000EF91BF91AF919F918F917F916F915F918E
:100210004F913F912F910F900FBE0F901F90189507
:100220001CBC249884B1886284B9229A2A9A80E5F9
:100230008CBD8CB5877F8CBD8CB584608CBD8DB535
:1002400081608DBD8CB582608CBD8CB58E7F8CBD80
:1002500008951CBC2398249A22982A9880EC8CBD7F
:100260008CB5877F8CBD8CB584608CBD8DB581606D
:100270008DBD8CB582608CBD8CB58E7F8CBD089594
:100280001F920F920FB60F9211248F93299A80918B
:10029000C00085FFFCCF8EB58093C6008EB58F5F02
:1002A0008EBD29988F910F900FBE0F901F901895BB
:1002B000FC012081222389F0299A2A980196208125
:1002C0002EBD0DB407FEFDCF2A9A2998AFE9BFE0F5
:1002D0001197F1F700C00000EBCF0895F894219A30
:1002E000299A2098289A0E94AE002FEF83ED90E380
:1002F000215080409040E1F700C0000089EC90E080
:100300009F938F930E9401020F900F90189B09C03A
:100310008FEB90E09F938F930E9401020E94100147
:1003200008C086EB90E09F938F930E9401020E9489
:1003300029010F900F904F990AC08DEA90E09F938A
:100340008F930E94010280E28EBD0F900F908AEA87
:1003500090E09F938F930E940102789429980F90C8
:100360000F90C8E6D0E00EE810E083E8E82E80E0C9
:10037000F82E90E0C92E91E0D92E2FEF83E294EF72
:10038000215080409040E1F700C000004F99F5CF28
:10039000189B15C01F930F930E9401028EE091E0FD
:1003A0000E945801FF92EF92DF92CF920E94E601E5
:1003B0000F900F900F900F900F900F90DECFDF9364
:1003C000CF930E9401020F900F90D7CFA0E0B0E032
:1003D000ECEEF1E00C94A9040F811885F8018381FB
:1003E00088608383AE01455F5F4F69857A85C80168
:1003F0000E942302F8012381277F2383E4E00C94E9
:10040000C504A0E0B0E0E7E0F2E00C94A904FE012E
:1004100037966191719102E311E0D8018D919C9121
:10042000DC0113962C911397286013962C93AF013F
:100430000E942302D801ED91FC912381277F238321
:10044000E4E00C94C504ACE0B0E0E9E2F2E00C9426
:100450009B047C016B018A01FC0117821682838157
:1004600081FFBDC1CE0101964C01F7019381F601D8
:1004700093FD859193FF81916F01882309F4ABC1AE
:10048000853239F493FD859193FF81916F01853217
:1004900029F4B70190E00E940B04E7CF512C312CD6
:1004A00020E02032A0F48B3269F030F4803259F031
:1004B000833269F420612CC08D3239F0803339F4F5
:1004C000216026C02260246023C0286021C027FD4F
:1004D00027C030ED380F3A3078F426FF06C0FAE036
:1004E0005F9E300D1124532E13C08AE0389E300DCC
:1004F0001124332E20620CC08E3221F426FD6BC1F4
:10050000206406C08C3611F4206802C0883641F49D
:10051000F60193FD859193FF81916F018111C1CF08
:10052000982F9F7D9554933028F40C5F1F4FFFE365
:10053000F9830DC0833631F0833771F0833509F0CC
:100540005BC022C0F801808189830E5F1F4F442465
:100550004394512C540115C03801F2E06F0E711C08
:10056000F801A080B18026FF03C0652D70E002C0B5
:100570006FEF7FEFC5012C870E9400042C018301DF
:100580002C852F77222E17C03801F2E06F0E711CD8
:10059000F801A080B18026FF03C0652D70E002C085
:1005A0006FEF7FEFC5012C870E94F5032C012C858E
:1005B0002068222E830123FC1BC0832D90E0481667
:1005C0005906B0F4B70180E290E00E940B043A941F
:1005D000F4CFF50127FC859127FE81915F01B701DA
:1005E00090E00E940B0431103A94F1E04F1A510848
:1005F0004114510471F7E5C0843611F0893639F59C
:10060000F80127FF07C060817181828193810C5FAF
:100610001F4F08C060817181882777FD8095982FD2
:100620000E5F1F4F2F76B22E97FF09C090958095D1
:10063000709561957F4F8F4F9F4F2068B22E2AE0B3
:1006400030E0A4010E943D04A82EA81844C08537BC
:1006500029F42F7EB22E2AE030E025C0F22FF97F58
:10066000BF2E8F36C1F018F4883579F0B4C08037CA
:1006700019F0883721F0AFC02F2F2061B22EB4FEC1
:100680000DC08B2D8460B82E09C024FF0AC09F2F97
:100690009660B92E06C028E030E005C020E130E0C9
:1006A00002C020E132E0F801B7FE07C0608171812D
:1006B000828193810C5F1F4F06C06081718180E051
:1006C00090E00E5F1F4FA4010E943D04A82EA818C1
:1006D000FB2DFF77BF2EB6FE0BC02B2D2E7FA51452
:1006E00050F4B4FE0AC0B2FC08C02B2D2E7E05C00B
:1006F0007A2C2B2D03C07A2C01C0752C24FF0DC041
:10070000FE01EA0DF11D8081803311F4297E09C0BC
:1007100022FF06C07394739404C0822F867809F078
:10072000739423FD13C020FF06C05A2C731418F4D1
:10073000530C5718732C731468F4B70180E290E0DF
:100740002C870E940B0473942C85F5CF731410F43E
:10075000371801C0312C24FF12C0B70180E390E0AC
:100760002C870E940B042C8522FF17C021FF03C099
:1007700088E590E002C088E790E0B7010CC0822FC6
:10078000867859F021FD02C080E201C08BE227FD8E
:100790008DE2B70190E00E940B04A51438F4B70174
:1007A00080E390E00E940B045A94F7CFAA94F401DE
:1007B000EA0DF11D8081B70190E00E940B04A110A9
:1007C000F5CF332009F451CEB70180E290E00E94CA
:1007D0000B043A94F6CFF7018681978102C08FEF20
:1007E0009FEF2C96E2E10C94B704FC010590615058
:1007F00070400110D8F7809590958E0F9F1F089537
:10080000FC016150704001900110D8F780959095DF
:100810008E0F9F1F08950F931F93CF93DF93182F71
:10082000092FEB018B8181FD03C08FEF9FEF20C06B
:1008300082FF10C04E815F812C813D81421753079A
:100840007CF4E881F9819F012F5F3F4F3983288332
:10085000108306C0E885F985812F0995892B29F732
:100860002E813F812F5F3F4F3F832E83812F902F1B
:10087000DF91CF911F910F910895FA01AA27283097
:1008800051F1203181F1E8946F936E7F6E5F7F4F5D
:100890008F4F9F4FAF4FB1E03ED0B4E03CD0670FD9
:1008A000781F891F9A1FA11D680F791F8A1F911D2C
:1008B000A11D6A0F711D811D911DA11D20D009F47C
:1008C00068943F912AE0269F11243019305D3193BE
:1008D000DEF6CF010895462F4770405D4193B3E0A7
:1008E0000FD0C9F7F6CF462F4F70405D4A3318F04E
:1008F000495D31FD4052419302D0A9F7EACFB4E0FF
:10090000A6959795879577956795BA95C9F70097B6
:100910006105710508959B01AC010A2E0694579557
:10092000479537952795BA95C9F7620F731F841FAE
:10093000951FA01D08952F923F924F925F926F9244
:100940007F928F929F92AF92BF92CF92DF92EF925F
:10095000FF920F931F93CF93DF93CDB7DEB7CA1BE0
:10096000DB0B0FB6F894DEBF0FBECDBF09942A880B
:10097000398848885F846E847D848C849B84AA84B3
:10098000B984C884DF80EE80FD800C811B81AA8140
:10099000B981CE0FD11D0FB6F894DEBF0FBECDBF0B
:0809A000ED010895F894FFCF6A
:1009A80000000002000000009E00000000004865F2
:1009B8006C6C6F2066726F6D204D41535445520D1B
:0209C8000A0023
:00000001FF
